:1000000072C000009EC000009CC000009AC00000AA
:1000100098C0000096C0000094C0000092C000008C
:1000200090C000008EC000008CC000008AC000009C
:1000300088C0000086C0000084C0000082C00000AC
:1000400080C000007EC000007CC000007AC00000BC
:1000500078C0000076C0000074C00000F8C1000045
:1000600070C000006EC000006CC000006AC00000DC
:1000700068C0000066C0000064C0000062C00000EC
:1000800060C000005EC000005CC000005AC00000FC
:1000900051C2000026C2000054C0000052C000003F
:1000A00050C000004EC000004CC000004AC000001C
:1000B00048C0000046C0000044C0000042C000002C
:1000C00040C000003EC000003CC000003AC000003C
:1000D00038C0000036C0000034C0000032C000004C
:1000E00030C00000840311241FBECFEFD1E2DEBF79
:1000F000CDBF00E00CBF12E0A0E0B2E0E2ECF7E020
:1001000000E00BBF02C007900D92A631B107D9F7EE
:1001100022E0A6E1B2E001C01D92AC3BB207E1F7DC
:1001200010E0C3E7D0E000E005C021970109802F6F
:10013000FE0139D3C237D10780E00807B1F730D2CA
:100140003EC35ECFCF92DF92EF92FF920F931F9349
:10015000CF93DF936C017A018B01C0E0D0E0CE1524
:10016000DF0589F0D8016D918D01D601ED91FC91EB
:100170000190F081E02DC6011995892B11F47E01C3
:1001800002C02196ECCFC701DF91CF911F910F9153
:10019000FF90EF90DF90CF900895089580E090E079
:1001A0000895FC01538D448D252F30E0842F90E07D
:1001B000821B930B541710F0CF9608950197089562
:1001C000FC01918D828D981761F0828DDF01A80F5F
:1001D000B11D5D968C91928D9F5F9F73928F90E081
:1001E00008958FEF9FEF0895FC01918D828D9817F0
:1001F00031F0828DE80FF11D858D90E008958FEF2D
:100200009FEF0895FC01918D228D892F90E0805CF5
:100210009F4F821B91098F73992708958FE192E078
:10022000F1DF21E0892B09F420E0822F0895FC0101
:10023000848DDF01A80FB11DA35ABF4F2C91848D6F
:1002400090E001968F739927848FA689B7892C93A4
:10025000A089B1898C9180648C93938D848D98133F
:1002600006C00288F389E02D80818F7D8083089508
:10027000EF92FF920F931F93CF93DF93EC0181E0F6
:10028000888F9B8D8C8D981305C0E889F9898081B2
:1002900085FD23C0F62E0B8D10E00F5F1F4F0F73EF
:1002A0001127E02E8C8DE8120BC00FB607FCFACF99
:1002B000E889F989808185FFF5CFCE01B8DFF2CFDB
:1002C0008B8DFE01E80FF11DE35AFF4FF0820B8F7B
:1002D000EA89FB898081806207C0EE89FF8960839B
:1002E000E889F98980818064808381E090E0DF91F2
:1002F000CF911F910F91FF90EF900895CF93DF93CF
:10030000EC01888D8823C1F0EA89FB89808185FD15
:1003100005C0A889B9898C9186FD0EC00FB607FC6F
:10032000F5CF808185FFF2CFA889B9898C9185FFAF
:10033000EDCFCE017CDFE8CFDF91CF91089580E053
:1003400090E0892B41F080E090E0892B21F00E9421
:100350000000811120C080E090E0892B19F05EDF61
:1003600081111CC080E090E0892B41F080E090E09A
:10037000892B21F00E940000811113C080E090E0E1
:10038000892BA1F080E090E0892B81F00E94000091
:1003900081110AC008950E940000DDCF0E94000074
:1003A000E1CF0E940000EACF0C94000008958F92E4
:1003B0009F92AF92BF920F931F93CF93DF93CDB7CE
:1003C000DEB7A1970FB6F894DEBF0FBECDBF19A25E
:1003D000423008F44AE08E010F5D1F4F842E912CAD
:1003E000A12CB12CA5019401BCD1E62FB901CA0101
:1003F00001501109EA3014F4E05D01C0E95CD80154
:10040000EC93232B242B252B69F70115110569F09B
:10041000F80101900020E9F73197AF01401B510B23
:10042000B8018FE192E08EDE02C080E090E0A196FC
:100430000FB6F894DEBF0FBECDBFDF91CF911F91F5
:100440000F91BF90AF909F908F900895B4D11F925D
:100450000F920FB60F9211242F933F938F939F9378
:10046000AF93BF9380911B0290911C02A0911D023B
:10047000B0911E0230911A0223E0230F2D3720F491
:100480000196A11DB11D05C026E8230F0296A11DEE
:10049000B11D20931A0280931B0290931C02A0931B
:1004A0001D02B0931E028091160290911702A09136
:1004B0001802B09119020196A11DB11D8093160278
:1004C00090931702A0931802B0931902BF91AF91B5
:1004D0009F918F913F912F910F900FBE0F901F9082
:1004E00018951F920F920FB60F9211240BB60F9210
:1004F0002F933F934F935F936F937F938F939F932C
:10050000AF93BF93EF93FF938FE192E090DEFF9163
:10051000EF91BF91AF919F918F917F916F915F917B
:100520004F913F912F910F900BBE0F900FBE0F90E8
:100530001F9018951F920F920FB60F9211240BB6B1
:100540000F922F938F939F93EF93FF93E0912F023E
:10055000F09130028081E0913502F091360282FD07
:1005600012C09081809138028F5F8F732091390281
:10057000821751F0E0913802F0E0E15EFD4F958F77
:100580008093380201C08081FF91EF919F918F91FC
:100590002F910F900BBE0F900FBE0F901F901895CC
:1005A000789484B5826084BD84B5816084BD85B54E
:1005B000826085BD85B5816085BD80916E0081605A
:1005C00080936E0010928100809181008260809300
:1005D0008100809181008160809381008091800002
:1005E0008160809380008091B10084608093B1002D
:1005F0008091B00081608093B00080919100826012
:10060000809391008091910081608093910080910E
:1006100090008160809390008091A100826080931F
:10062000A1008091A10081608093A1008091A00031
:1006300081608093A00080912101826080932101DC
:10064000809121018160809321018091200181604E
:100650008093200180917A00846080937A00809159
:100660007A00826080937A0080917A008160809322
:100670007A0080917A00806880937A001092C1009D
:10068000E0912F02F091300282E08083E0912B0212
:10069000F0912C021082E0912D02F0912E0280E167
:1006A000808310923702E0913302F091340286E0A9
:1006B0008083E0913102F0913202808180618083F9
:1006C000E0913102F0913202808188608083E09174
:1006D0003102F0913202808180688083E0913102A2
:1006E000F091320280818F7D80834AE061E070E08A
:1006F00080E090E05CDE42E050E062E172E08FE199
:1007000092E020DD1CDEF1CFEFE1F2E013821282F5
:1007100088EE93E0A0E0B0E084839583A683B7835E
:1007200084E092E0918380838DEC90E095878487CC
:100730008CEC90E09787868788EC90E0918B808B9B
:1007400089EC90E0938B828B8AEC90E0958B848B84
:100750008EEC90E0978B868B118E128E138E148EFA
:100760000895A1E21A2EAA1BBB1BFD010DC0AA1FF2
:10077000BB1FEE1FFF1FA217B307E407F50720F00A
:10078000A21BB30BE40BF50B661F771F881F991F85
:100790001A9469F760957095809590959B01AC01CE
:1007A000BD01CF010895EE0FFF1F881F8BBF07907B
:1007B000F691E02D199481E090E0F89400C0F8944F
:0207C000FFCF69
:1007C200000000003801A200D1007E010201E00019
:0607D200F4000D0A000016
:00000001FF
